
main.elf:     file format elf32-avr

Sections:
Idx Name          Size      VMA       LMA       File off  Algn
  0 .text         0000031c  00001c00  00001c00  00000074  2**0
                  CONTENTS, ALLOC, LOAD, READONLY, CODE
  1 .trampolines  00000000  00001f1c  00001f1c  00000390  2**1
                  CONTENTS, ALLOC, LOAD, READONLY, CODE
  2 .data         00000000  00800060  00001f1c  00000390  2**0
                  CONTENTS, ALLOC, LOAD, DATA
  3 .bss          00000040  00800060  00001f1c  00000390  2**0
                  ALLOC
  4 .stab         00000c3c  00000000  00000000  00000390  2**2
                  CONTENTS, READONLY, DEBUGGING
  5 .stabstr      00000ff6  00000000  00000000  00000fcc  2**0
                  CONTENTS, READONLY, DEBUGGING
  6 .comment      00000030  00000000  00000000  00001fc2  2**0
                  CONTENTS, READONLY
  7 .note.gnu.avr.deviceinfo 0000003c  00000000  00000000  00001ff4  2**2
                  CONTENTS, READONLY
  8 .debug_info   0000048c  00000000  00000000  00002030  2**0
                  CONTENTS, READONLY, DEBUGGING
  9 .debug_abbrev 0000044e  00000000  00000000  000024bc  2**0
                  CONTENTS, READONLY, DEBUGGING
 10 .debug_line   0000001a  00000000  00000000  0000290a  2**0
                  CONTENTS, READONLY, DEBUGGING
 11 .debug_str    0000017a  00000000  00000000  00002924  2**0
                  CONTENTS, READONLY, DEBUGGING

Disassembly of section .text:

00001c00 <__ctors_end>:
    1c00:	11 24       	eor	r1, r1
    1c02:	1f be       	out	0x3f, r1	; 63
    1c04:	cf e5       	ldi	r28, 0x5F	; 95
    1c06:	d4 e0       	ldi	r29, 0x04	; 4
    1c08:	de bf       	out	0x3e, r29	; 62
    1c0a:	cd bf       	out	0x3d, r28	; 61

00001c0c <__do_clear_bss>:
    1c0c:	20 e0       	ldi	r18, 0x00	; 0
    1c0e:	a0 e6       	ldi	r26, 0x60	; 96
    1c10:	b0 e0       	ldi	r27, 0x00	; 0
    1c12:	01 c0       	rjmp	.+2      	; 0x1c16 <.do_clear_bss_start>

00001c14 <.do_clear_bss_loop>:
    1c14:	1d 92       	st	X+, r1

00001c16 <.do_clear_bss_start>:
    1c16:	a0 3a       	cpi	r26, 0xA0	; 160
    1c18:	b2 07       	cpc	r27, r18
    1c1a:	e1 f7       	brne	.-8      	; 0x1c14 <.do_clear_bss_loop>
    1c1c:	19 d0       	rcall	.+50     	; 0x1c50 <main>
    1c1e:	7c c1       	rjmp	.+760    	; 0x1f18 <_exit>

00001c20 <__bad_interrupt>:
    1c20:	16 c0       	rjmp	.+44     	; 0x1c4e <__vector_default>

00001c22 <sendchar>:
#if defined(ENABLED_RS485)
RSPORT |= (1 << RSPIN);
_delay_ms(RS_DELAY);
#endif

	while (!(UART_STATUS & (1<<UART_TXREADY)));
    1c22:	5d 9b       	sbis	0x0b, 5	; 11
    1c24:	fe cf       	rjmp	.-4      	; 0x1c22 <sendchar>
	UART_DATA = data;
    1c26:	8c b9       	out	0x0c, r24	; 12
    1c28:	08 95       	ret

00001c2a <recvchar>:
#endif
}

static uint8_t recvchar(void)
{
	while (!(UART_STATUS & (1<<UART_RXREADY)));
    1c2a:	5f 9b       	sbis	0x0b, 7	; 11
    1c2c:	fe cf       	rjmp	.-4      	; 0x1c2a <recvchar>
	return UART_DATA;
    1c2e:	8c b1       	in	r24, 0x0c	; 12
}
    1c30:	08 95       	ret

00001c32 <send_boot>:
}
#endif

static void send_boot(void)
{
	sendchar('A');
    1c32:	81 e4       	ldi	r24, 0x41	; 65
    1c34:	f6 df       	rcall	.-20     	; 0x1c22 <sendchar>
	sendchar('V');
    1c36:	86 e5       	ldi	r24, 0x56	; 86
    1c38:	f4 df       	rcall	.-24     	; 0x1c22 <sendchar>
	sendchar('R');
    1c3a:	82 e5       	ldi	r24, 0x52	; 82
    1c3c:	f2 df       	rcall	.-28     	; 0x1c22 <sendchar>
	sendchar('B');
    1c3e:	82 e4       	ldi	r24, 0x42	; 66
    1c40:	f0 df       	rcall	.-32     	; 0x1c22 <sendchar>
	sendchar('O');
    1c42:	8f e4       	ldi	r24, 0x4F	; 79
    1c44:	ee df       	rcall	.-36     	; 0x1c22 <sendchar>
	sendchar('O');
    1c46:	8f e4       	ldi	r24, 0x4F	; 79
    1c48:	ec df       	rcall	.-40     	; 0x1c22 <sendchar>
	sendchar('T');
    1c4a:	84 e5       	ldi	r24, 0x54	; 84
    1c4c:	ea cf       	rjmp	.-44     	; 0x1c22 <sendchar>

00001c4e <__vector_default>:

#if defined(BOOTLOADERHASNOVECTORS)
#warning "This Bootloader does not link interrupt vectors - see makefile"
/* make the linker happy - it wants to see __vector_default */
// void __vector_default(void) { ; }
void __vector_default(void) { ; }
    1c4e:	08 95       	ret

00001c50 <main>:
#ifdef DISABLE_WDT_AT_STARTUP
#ifdef WDT_OFF_SPECIAL
#warning "using target specific watchdog_off"
	bootloader_wdt_off();
#else
	cli();
    1c50:	f8 94       	cli
	wdt_reset();
    1c52:	a8 95       	wdr
void wdt_disable (void)
{
	if (_SFR_IO_REG_P (_WD_CONTROL_REG))
	{
        uint8_t register temp_reg;
		__asm__ __volatile__ (
    1c54:	0f b6       	in	r0, 0x3f	; 63
    1c56:	f8 94       	cli
    1c58:	a8 95       	wdr
    1c5a:	81 b5       	in	r24, 0x21	; 33
    1c5c:	88 61       	ori	r24, 0x18	; 24
    1c5e:	81 bd       	out	0x21, r24	; 33
    1c60:	11 bc       	out	0x21, r1	; 33
    1c62:	0f be       	out	0x3f, r0	; 63
	
#ifdef START_POWERSAVE
	uint8_t OK = 1;
#endif

	BLDDR  &= ~(1<<BLPNUM);		// set as Input
    1c64:	a4 98       	cbi	0x14, 4	; 20
	BLPORT |= (1<<BLPNUM);		// Enable pullup
    1c66:	ac 9a       	sbi	0x15, 4	; 21

	// Set baud rate
	UART_BAUD_HIGH = (UART_CALC_BAUDRATE(BAUDRATE)>>8) & 0xFF;
    1c68:	10 bc       	out	0x20, r1	; 32
	UART_BAUD_LOW = (UART_CALC_BAUDRATE(BAUDRATE) & 0xFF);
    1c6a:	87 e6       	ldi	r24, 0x67	; 103
    1c6c:	89 b9       	out	0x09, r24	; 9

#ifdef UART_DOUBLESPEED
	UART_STATUS = ( 1<<UART_DOUBLE );
#endif

	UART_CTRL = UART_CTRL_DATA;
    1c6e:	88 e1       	ldi	r24, 0x18	; 24
    1c70:	8a b9       	out	0x0a, r24	; 10
	UART_CTRL2 = UART_CTRL2_DATA;
    1c72:	86 e8       	ldi	r24, 0x86	; 134
    1c74:	80 bd       	out	0x20, r24	; 32
    1c76:	c0 e0       	ldi	r28, 0x00	; 0
    1c78:	d0 e0       	ldi	r29, 0x00	; 0
			if (UART_DATA == START_WAIT_UARTCHAR)
				break;

		if (cnt++ >= WAIT_VALUE) {
			BLPORT &= ~(1<<BLPNUM);		// set to default
			jump_to_app();			// Jump to application sector
    1c7a:	00 e0       	ldi	r16, 0x00	; 0
    1c7c:	10 e0       	ldi	r17, 0x00	; 0
#elif defined(START_WAIT)

	uint16_t cnt = 0;

	while (1) {
		if (UART_STATUS & (1<<UART_RXREADY))
    1c7e:	5f 9b       	sbis	0x0b, 7	; 11
    1c80:	03 c0       	rjmp	.+6      	; 0x1c88 <main+0x38>
			if (UART_DATA == START_WAIT_UARTCHAR)
    1c82:	8c b1       	in	r24, 0x0c	; 12
    1c84:	83 35       	cpi	r24, 0x53	; 83
    1c86:	71 f0       	breq	.+28     	; 0x1ca4 <main+0x54>
				break;

		if (cnt++ >= WAIT_VALUE) {
    1c88:	c9 31       	cpi	r28, 0x19	; 25
    1c8a:	d1 05       	cpc	r29, r1
    1c8c:	18 f0       	brcs	.+6      	; 0x1c94 <main+0x44>
			BLPORT &= ~(1<<BLPNUM);		// set to default
    1c8e:	ac 98       	cbi	0x15, 4	; 21
			jump_to_app();			// Jump to application sector
    1c90:	f8 01       	movw	r30, r16
    1c92:	09 95       	icall
	#else
		//round up by default
		__ticks_dc = (uint32_t)(ceil(fabs(__tmp)));
	#endif

	__builtin_avr_delay_cycles(__ticks_dc);
    1c94:	8f e3       	ldi	r24, 0x3F	; 63
    1c96:	9c e9       	ldi	r25, 0x9C	; 156
    1c98:	01 97       	sbiw	r24, 0x01	; 1
    1c9a:	f1 f7       	brne	.-4      	; 0x1c98 <main+0x48>
    1c9c:	00 c0       	rjmp	.+0      	; 0x1c9e <main+0x4e>
    1c9e:	00 00       	nop
    1ca0:	21 96       	adiw	r28, 0x01	; 1
    1ca2:	ed cf       	rjmp	.-38     	; 0x1c7e <main+0x2e>
		}

		_delay_ms(10);
	}
	send_boot();
    1ca4:	c6 df       	rcall	.-116    	; 0x1c32 <send_boot>

//=========================================================================================================================
int main(void)
{
	uint16_t address = 0;
	uint8_t device = 0, val;
    1ca6:	f1 2c       	mov	r15, r1
static void (*jump_to_app)(void) = 0x0000;

//=========================================================================================================================
int main(void)
{
	uint16_t address = 0;
    1ca8:	c0 e0       	ldi	r28, 0x00	; 0
    1caa:	d0 e0       	ldi	r29, 0x00	; 0
__attribute__ ((__always_inline__))
void wdt_enable (const uint8_t value)
{
	if (_SFR_IO_REG_P (_WD_CONTROL_REG))
	{
		__asm__ __volatile__ (
    1cac:	a8 e1       	ldi	r26, 0x18	; 24
    1cae:	ba 2e       	mov	r11, r26
    1cb0:	bc e0       	ldi	r27, 0x0C	; 12
    1cb2:	ab 2e       	mov	r10, r27
static inline void eraseFlash(void)
{
	// erase only main section (bootloader protection)
	uint32_t addr = 0;
	while (APP_END > addr) {
		boot_page_erase(addr);		// Perform page erase
    1cb4:	13 e0       	ldi	r17, 0x03	; 3
    1cb6:	91 2e       	mov	r9, r17
		boot_spm_busy_wait();		// Wait until the memory is erased.
		addr += SPM_PAGESIZE;
	}
	boot_rww_enable();
    1cb8:	01 e1       	ldi	r16, 0x11	; 17
    1cba:	e0 2e       	mov	r14, r16
	uint8_t *tmp = gBuffer;

	do {
		data = *tmp++;
		data |= *tmp++ << 8;
		boot_page_fill(baddr, data);	// call asm routine.
    1cbc:	88 24       	eor	r8, r8
    1cbe:	83 94       	inc	r8

		baddr += 2;			// Select next word in memory
		size -= 2;			// Reduce number of bytes to write by two
	} while (size);				// Loop until all bytes written

	boot_page_write(pagestart);
    1cc0:	85 e0       	ldi	r24, 0x05	; 5
    1cc2:	28 2e       	mov	r2, r24
#else
#error "Select START_ condition for bootloader in main.c"
#endif

	for(;;) {
		val = recvchar();
    1cc4:	b2 df       	rcall	.-156    	; 0x1c2a <recvchar>
		// Autoincrement?
		if (val == 'a') {
    1cc6:	81 36       	cpi	r24, 0x61	; 97
    1cc8:	11 f4       	brne	.+4      	; 0x1cce <main+0x7e>
			sendchar('Y');			// Autoincrement is quicker
    1cca:	89 e5       	ldi	r24, 0x59	; 89
    1ccc:	0e c1       	rjmp	.+540    	; 0x1eea <main+0x29a>

		//write address
		} else if (val == 'A') {
    1cce:	81 34       	cpi	r24, 0x41	; 65
    1cd0:	41 f4       	brne	.+16     	; 0x1ce2 <main+0x92>
			address = recvchar();		//read address 8 MSB
    1cd2:	ab df       	rcall	.-170    	; 0x1c2a <recvchar>
			address = (address<<8) | recvchar();
    1cd4:	c8 2f       	mov	r28, r24
    1cd6:	d0 e0       	ldi	r29, 0x00	; 0
    1cd8:	dc 2f       	mov	r29, r28
    1cda:	cc 27       	eor	r28, r28
    1cdc:	a6 df       	rcall	.-180    	; 0x1c2a <recvchar>
    1cde:	c8 2b       	or	r28, r24
    1ce0:	ec c0       	rjmp	.+472    	; 0x1eba <main+0x26a>
			sendchar('\r');

		// Buffer load support
		} else if (val == 'b') {
    1ce2:	82 36       	cpi	r24, 0x62	; 98
    1ce4:	31 f4       	brne	.+12     	; 0x1cf2 <main+0xa2>
			sendchar('Y');					// Report buffer load supported
    1ce6:	89 e5       	ldi	r24, 0x59	; 89
    1ce8:	9c df       	rcall	.-200    	; 0x1c22 <sendchar>
			sendchar((sizeof(gBuffer) >> 8) & 0xFF);	// Report buffer size in bytes
    1cea:	80 e0       	ldi	r24, 0x00	; 0
    1cec:	9a df       	rcall	.-204    	; 0x1c22 <sendchar>
			sendchar(sizeof(gBuffer) & 0xFF);
    1cee:	80 e4       	ldi	r24, 0x40	; 64
    1cf0:	fc c0       	rjmp	.+504    	; 0x1eea <main+0x29a>

		// Start buffer load
		} else if (val == 'B') {
    1cf2:	82 34       	cpi	r24, 0x42	; 66
    1cf4:	09 f0       	breq	.+2      	; 0x1cf8 <main+0xa8>
    1cf6:	62 c0       	rjmp	.+196    	; 0x1dbc <main+0x16c>
			pagebuf_t size;
			size = recvchar() << 8;				// Load high byte of buffersize
    1cf8:	98 df       	rcall	.-208    	; 0x1c2a <recvchar>
			size |= recvchar();				// Load low byte of buffersize
    1cfa:	97 df       	rcall	.-210    	; 0x1c2a <recvchar>
    1cfc:	58 2e       	mov	r5, r24
			val = recvchar();				// Load memory type ('E' or 'F')
    1cfe:	95 df       	rcall	.-214    	; 0x1c2a <recvchar>
    1d00:	38 2e       	mov	r3, r24
    1d02:	00 e6       	ldi	r16, 0x60	; 96
    1d04:	10 e0       	ldi	r17, 0x00	; 0
    1d06:	68 01       	movw	r12, r16
static inline void recvBuffer(pagebuf_t size)
{
	pagebuf_t cnt;
	uint8_t *tmp = gBuffer;

	for (cnt = 0; cnt < sizeof(gBuffer); cnt++) {
    1d08:	41 2c       	mov	r4, r1
		*tmp++ = (cnt < size) ? recvchar() : 0xFF;
    1d0a:	45 14       	cp	r4, r5
    1d0c:	10 f4       	brcc	.+4      	; 0x1d12 <main+0xc2>
    1d0e:	8d df       	rcall	.-230    	; 0x1c2a <recvchar>
    1d10:	01 c0       	rjmp	.+2      	; 0x1d14 <main+0xc4>
    1d12:	8f ef       	ldi	r24, 0xFF	; 255
    1d14:	f6 01       	movw	r30, r12
    1d16:	81 93       	st	Z+, r24
    1d18:	6f 01       	movw	r12, r30
static inline void recvBuffer(pagebuf_t size)
{
	pagebuf_t cnt;
	uint8_t *tmp = gBuffer;

	for (cnt = 0; cnt < sizeof(gBuffer); cnt++) {
    1d1a:	43 94       	inc	r4
    1d1c:	f0 e4       	ldi	r31, 0x40	; 64
    1d1e:	4f 12       	cpse	r4, r31
    1d20:	f4 cf       	rjmp	.-24     	; 0x1d0a <main+0xba>
			size = recvchar() << 8;				// Load high byte of buffersize
			size |= recvchar();				// Load low byte of buffersize
			val = recvchar();				// Load memory type ('E' or 'F')
			recvBuffer(size);

			if (device == DEVTYPE) {
    1d22:	87 e7       	ldi	r24, 0x77	; 119
    1d24:	f8 12       	cpse	r15, r24
    1d26:	bd c0       	rjmp	.+378    	; 0x1ea2 <main+0x252>
				if (val == 'F') {
    1d28:	96 e4       	ldi	r25, 0x46	; 70
    1d2a:	39 12       	cpse	r3, r25
    1d2c:	31 c0       	rjmp	.+98     	; 0x1d90 <main+0x140>
	}
}

static inline uint16_t writeFlashPage(uint16_t waddr, pagebuf_t size)
{
	uint32_t pagestart = (uint32_t)waddr<<1;
    1d2e:	ae 01       	movw	r20, r28
    1d30:	60 e0       	ldi	r22, 0x00	; 0
    1d32:	70 e0       	ldi	r23, 0x00	; 0
    1d34:	44 0f       	add	r20, r20
    1d36:	55 1f       	adc	r21, r21
    1d38:	66 1f       	adc	r22, r22
    1d3a:	77 1f       	adc	r23, r23
	uint32_t baddr = pagestart;
	uint16_t data;
	uint8_t *tmp = gBuffer;
    1d3c:	20 91 60 00 	lds	r18, 0x0060	; 0x800060 <_edata>
}

static inline uint16_t writeFlashPage(uint16_t waddr, pagebuf_t size)
{
	uint32_t pagestart = (uint32_t)waddr<<1;
	uint32_t baddr = pagestart;
    1d40:	db 01       	movw	r26, r22
    1d42:	ca 01       	movw	r24, r20
	uint8_t *tmp = gBuffer;

	do {
		data = *tmp++;
		data |= *tmp++ << 8;
		boot_page_fill(baddr, data);	// call asm routine.
    1d44:	e8 01       	movw	r28, r16
    1d46:	e9 81       	ldd	r30, Y+1	; 0x01
    1d48:	30 e0       	ldi	r19, 0x00	; 0
    1d4a:	3e 2b       	or	r19, r30
    1d4c:	fc 01       	movw	r30, r24
    1d4e:	09 01       	movw	r0, r18
    1d50:	80 92 57 00 	sts	0x0057, r8	; 0x800057 <_etext+0x7fe13b>
    1d54:	e8 95       	spm
    1d56:	11 24       	eor	r1, r1

		baddr += 2;			// Select next word in memory
    1d58:	02 96       	adiw	r24, 0x02	; 2
    1d5a:	a1 1d       	adc	r26, r1
    1d5c:	b1 1d       	adc	r27, r1
		size -= 2;			// Reduce number of bytes to write by two
    1d5e:	5a 94       	dec	r5
    1d60:	5a 94       	dec	r5
    1d62:	0e 5f       	subi	r16, 0xFE	; 254
    1d64:	1f 4f       	sbci	r17, 0xFF	; 255
	} while (size);				// Loop until all bytes written
    1d66:	55 20       	and	r5, r5
    1d68:	19 f0       	breq	.+6      	; 0x1d70 <main+0x120>
	uint16_t data;
	uint8_t *tmp = gBuffer;

	do {
		data = *tmp++;
		data |= *tmp++ << 8;
    1d6a:	e8 01       	movw	r28, r16
    1d6c:	28 81       	ld	r18, Y
    1d6e:	ea cf       	rjmp	.-44     	; 0x1d44 <main+0xf4>

		baddr += 2;			// Select next word in memory
		size -= 2;			// Reduce number of bytes to write by two
	} while (size);				// Loop until all bytes written

	boot_page_write(pagestart);
    1d70:	fa 01       	movw	r30, r20
    1d72:	20 92 57 00 	sts	0x0057, r2	; 0x800057 <_etext+0x7fe13b>
    1d76:	e8 95       	spm
	boot_spm_busy_wait();
    1d78:	07 b6       	in	r0, 0x37	; 55
    1d7a:	00 fc       	sbrc	r0, 0
    1d7c:	fd cf       	rjmp	.-6      	; 0x1d78 <main+0x128>
	boot_rww_enable();		// Re-enable the RWW section
    1d7e:	e0 92 57 00 	sts	0x0057, r14	; 0x800057 <_etext+0x7fe13b>
    1d82:	e8 95       	spm

	return baddr>>1;
    1d84:	b6 95       	lsr	r27
    1d86:	a7 95       	ror	r26
    1d88:	97 95       	ror	r25
    1d8a:	87 95       	ror	r24
    1d8c:	ec 01       	movw	r28, r24
    1d8e:	95 c0       	rjmp	.+298    	; 0x1eba <main+0x26a>
			recvBuffer(size);

			if (device == DEVTYPE) {
				if (val == 'F') {
					address = writeFlashPage(address, size);
				} else if (val == 'E') {
    1d90:	f5 e4       	ldi	r31, 0x45	; 69
    1d92:	3f 12       	cpse	r3, r31
    1d94:	92 c0       	rjmp	.+292    	; 0x1eba <main+0x26a>

		// Start buffer load
		} else if (val == 'B') {
			pagebuf_t size;
			size = recvchar() << 8;				// Load high byte of buffersize
			size |= recvchar();				// Load low byte of buffersize
    1d96:	45 2c       	mov	r4, r5
    1d98:	6e 01       	movw	r12, r28
static inline uint16_t writeEEpromPage(uint16_t address, pagebuf_t size)
{
	uint8_t *tmp = gBuffer;

	do {
		eeprom_write_byte( (uint8_t*)address, *tmp++ );
    1d9a:	f8 01       	movw	r30, r16
    1d9c:	61 91       	ld	r22, Z+
    1d9e:	8f 01       	movw	r16, r30
    1da0:	c6 01       	movw	r24, r12
    1da2:	ad d0       	rcall	.+346    	; 0x1efe <eeprom_write_byte>
		address++;			// Select next byte
    1da4:	ff ef       	ldi	r31, 0xFF	; 255
    1da6:	cf 1a       	sub	r12, r31
    1da8:	df 0a       	sbc	r13, r31
		size--;				// Decreas number of bytes to write
    1daa:	4a 94       	dec	r4
	} while (size);				// Loop until all bytes written
    1dac:	41 10       	cpse	r4, r1
    1dae:	f5 cf       	rjmp	.-22     	; 0x1d9a <main+0x14a>
    1db0:	21 96       	adiw	r28, 0x01	; 1
    1db2:	8f ef       	ldi	r24, 0xFF	; 255
    1db4:	85 0d       	add	r24, r5
    1db6:	c8 0f       	add	r28, r24
    1db8:	d1 1d       	adc	r29, r1
    1dba:	7f c0       	rjmp	.+254    	; 0x1eba <main+0x26a>
			} else {
				sendchar(0);
			}

		// Block read
		} else if (val == 'g') {
    1dbc:	87 36       	cpi	r24, 0x67	; 103
    1dbe:	09 f0       	breq	.+2      	; 0x1dc2 <main+0x172>
    1dc0:	44 c0       	rjmp	.+136    	; 0x1e4a <main+0x1fa>
			pagebuf_t size;
			size = recvchar() << 8;				// Load high byte of buffersize
    1dc2:	33 df       	rcall	.-410    	; 0x1c2a <recvchar>
			size |= recvchar();				// Load low byte of buffersize
    1dc4:	32 df       	rcall	.-412    	; 0x1c2a <recvchar>
    1dc6:	d8 2e       	mov	r13, r24
			val = recvchar();				// Get memtype
    1dc8:	30 df       	rcall	.-416    	; 0x1c2a <recvchar>

			if (val == 'F') {
    1dca:	86 34       	cpi	r24, 0x46	; 70
    1dcc:	59 f5       	brne	.+86     	; 0x1e24 <main+0x1d4>
	return address;
}

static inline uint16_t readFlashPage(uint16_t waddr, pagebuf_t size)
{
	uint32_t baddr = (uint32_t)waddr<<1;
    1dce:	ce 01       	movw	r24, r28
    1dd0:	a0 e0       	ldi	r26, 0x00	; 0
    1dd2:	b0 e0       	ldi	r27, 0x00	; 0
    1dd4:	2c 01       	movw	r4, r24
    1dd6:	3d 01       	movw	r6, r26
    1dd8:	44 0c       	add	r4, r4
    1dda:	55 1c       	adc	r5, r5
    1ddc:	66 1c       	adc	r6, r6
    1dde:	77 1c       	adc	r7, r7
#else
		data = pgm_read_word_near(baddr);
#endif
#else
		// don't read bootloader
		if ( baddr < APP_END ) {
    1de0:	8f ef       	ldi	r24, 0xFF	; 255
    1de2:	48 16       	cp	r4, r24
    1de4:	8b e1       	ldi	r24, 0x1B	; 27
    1de6:	58 06       	cpc	r5, r24
    1de8:	61 04       	cpc	r6, r1
    1dea:	71 04       	cpc	r7, r1
    1dec:	28 f4       	brcc	.+10     	; 0x1df8 <main+0x1a8>
#if defined(RAMPZ)
			data = pgm_read_word_far(baddr);
#else
			data = pgm_read_word_near(baddr);
    1dee:	f2 01       	movw	r30, r4
    1df0:	85 91       	lpm	r24, Z+
    1df2:	94 91       	lpm	r25, Z
    1df4:	c9 2f       	mov	r28, r25
    1df6:	02 c0       	rjmp	.+4      	; 0x1dfc <main+0x1ac>
#endif
		}
		else {
			data = 0xFFFF; // fake empty
    1df8:	8f ef       	ldi	r24, 0xFF	; 255
    1dfa:	cf ef       	ldi	r28, 0xFF	; 255
		}
#endif
		sendchar(data);			// send LSB
    1dfc:	12 df       	rcall	.-476    	; 0x1c22 <sendchar>
		sendchar((data >> 8));		// send MSB
    1dfe:	8c 2f       	mov	r24, r28
    1e00:	10 df       	rcall	.-480    	; 0x1c22 <sendchar>
		baddr += 2;			// Select next word in memory
    1e02:	92 e0       	ldi	r25, 0x02	; 2
    1e04:	49 0e       	add	r4, r25
    1e06:	51 1c       	adc	r5, r1
    1e08:	61 1c       	adc	r6, r1
    1e0a:	71 1c       	adc	r7, r1
		size -= 2;			// Subtract two bytes from number of bytes to read
    1e0c:	da 94       	dec	r13
    1e0e:	da 94       	dec	r13
	} while (size);				// Repeat until block has been read
    1e10:	d1 10       	cpse	r13, r1
    1e12:	e6 cf       	rjmp	.-52     	; 0x1de0 <main+0x190>

	return baddr>>1;
    1e14:	d3 01       	movw	r26, r6
    1e16:	c2 01       	movw	r24, r4
    1e18:	b6 95       	lsr	r27
    1e1a:	a7 95       	ror	r26
    1e1c:	97 95       	ror	r25
    1e1e:	87 95       	ror	r24
    1e20:	ec 01       	movw	r28, r24
    1e22:	50 cf       	rjmp	.-352    	; 0x1cc4 <main+0x74>
			size |= recvchar();				// Load low byte of buffersize
			val = recvchar();				// Get memtype

			if (val == 'F') {
				address = readFlashPage(address, size);
			} else if (val == 'E') {
    1e24:	85 34       	cpi	r24, 0x45	; 69
    1e26:	09 f0       	breq	.+2      	; 0x1e2a <main+0x1da>
    1e28:	4d cf       	rjmp	.-358    	; 0x1cc4 <main+0x74>
    1e2a:	cd 2c       	mov	r12, r13
    1e2c:	8e 01       	movw	r16, r28
}

static inline uint16_t readEEpromPage(uint16_t address, pagebuf_t size)
{
	do {
		sendchar( eeprom_read_byte( (uint8_t*)address ) );
    1e2e:	c8 01       	movw	r24, r16
    1e30:	5e d0       	rcall	.+188    	; 0x1eee <eeprom_read_byte>
    1e32:	f7 de       	rcall	.-530    	; 0x1c22 <sendchar>
		address++;
    1e34:	0f 5f       	subi	r16, 0xFF	; 255
    1e36:	1f 4f       	sbci	r17, 0xFF	; 255
		size--;				// Decrease number of bytes to read
    1e38:	ca 94       	dec	r12
	} while (size);				// Repeat until block has been read
    1e3a:	c1 10       	cpse	r12, r1
    1e3c:	f8 cf       	rjmp	.-16     	; 0x1e2e <main+0x1de>
    1e3e:	21 96       	adiw	r28, 0x01	; 1
    1e40:	8f ef       	ldi	r24, 0xFF	; 255
    1e42:	8d 0d       	add	r24, r13
    1e44:	c8 0f       	add	r28, r24
    1e46:	d1 1d       	adc	r29, r1
    1e48:	3d cf       	rjmp	.-390    	; 0x1cc4 <main+0x74>
			} else if (val == 'E') {
				address = readEEpromPage(address, size);
			}

		// Chip erase
 		} else if (val == 'e') {
    1e4a:	85 36       	cpi	r24, 0x65	; 101
    1e4c:	a9 f4       	brne	.+42     	; 0x1e78 <main+0x228>
			if (device == DEVTYPE) {
    1e4e:	e7 e7       	ldi	r30, 0x77	; 119
    1e50:	fe 12       	cpse	r15, r30
    1e52:	33 c0       	rjmp	.+102    	; 0x1eba <main+0x26a>
    1e54:	e0 e0       	ldi	r30, 0x00	; 0
    1e56:	f0 e0       	ldi	r31, 0x00	; 0
static inline void eraseFlash(void)
{
	// erase only main section (bootloader protection)
	uint32_t addr = 0;
	while (APP_END > addr) {
		boot_page_erase(addr);		// Perform page erase
    1e58:	90 92 57 00 	sts	0x0057, r9	; 0x800057 <_etext+0x7fe13b>
    1e5c:	e8 95       	spm
		boot_spm_busy_wait();		// Wait until the memory is erased.
    1e5e:	07 b6       	in	r0, 0x37	; 55
    1e60:	00 fc       	sbrc	r0, 0
    1e62:	fd cf       	rjmp	.-6      	; 0x1e5e <main+0x20e>
    1e64:	e0 5c       	subi	r30, 0xC0	; 192
    1e66:	ff 4f       	sbci	r31, 0xFF	; 255

static inline void eraseFlash(void)
{
	// erase only main section (bootloader protection)
	uint32_t addr = 0;
	while (APP_END > addr) {
    1e68:	e1 15       	cp	r30, r1
    1e6a:	8c e1       	ldi	r24, 0x1C	; 28
    1e6c:	f8 07       	cpc	r31, r24
    1e6e:	a1 f7       	brne	.-24     	; 0x1e58 <main+0x208>
		boot_page_erase(addr);		// Perform page erase
		boot_spm_busy_wait();		// Wait until the memory is erased.
		addr += SPM_PAGESIZE;
	}
	boot_rww_enable();
    1e70:	e0 92 57 00 	sts	0x0057, r14	; 0x800057 <_etext+0x7fe13b>
    1e74:	e8 95       	spm
    1e76:	21 c0       	rjmp	.+66     	; 0x1eba <main+0x26a>
				eraseFlash();
			}
			sendchar('\r');

		// Exit upgrade
		} else if (val == 'E') {
    1e78:	85 34       	cpi	r24, 0x45	; 69
    1e7a:	39 f4       	brne	.+14     	; 0x1e8a <main+0x23a>
    1e7c:	0f b6       	in	r0, 0x3f	; 63
    1e7e:	f8 94       	cli
    1e80:	a8 95       	wdr
    1e82:	b1 bc       	out	0x21, r11	; 33
    1e84:	0f be       	out	0x3f, r0	; 63
    1e86:	a1 bc       	out	0x21, r10	; 33
    1e88:	18 c0       	rjmp	.+48     	; 0x1eba <main+0x26a>
				boot_spm_busy_wait();
			}
			sendchar('\r');
#endif
		// Enter programming mode
		} else if (val == 'P') {
    1e8a:	80 35       	cpi	r24, 0x50	; 80
    1e8c:	b1 f0       	breq	.+44     	; 0x1eba <main+0x26a>
			sendchar('\r');

		// Leave programming mode
		} else if (val == 'L') {
    1e8e:	8c 34       	cpi	r24, 0x4C	; 76
    1e90:	a1 f0       	breq	.+40     	; 0x1eba <main+0x26a>
			sendchar('\r');

		// return programmer type
		} else if (val == 'p') {
    1e92:	80 37       	cpi	r24, 0x70	; 112
    1e94:	11 f4       	brne	.+4      	; 0x1e9a <main+0x24a>
			sendchar('S');		// always serial programmer
    1e96:	83 e5       	ldi	r24, 0x53	; 83
    1e98:	28 c0       	rjmp	.+80     	; 0x1eea <main+0x29a>
		} else if (val == 'Q') {
			sendchar(read_fuse_lock(GET_EXTENDED_FUSE_BITS));
#endif

		// Return device type
		} else if (val == 't') {
    1e9a:	84 37       	cpi	r24, 0x74	; 116
    1e9c:	21 f4       	brne	.+8      	; 0x1ea6 <main+0x256>
			sendchar(DEVTYPE);
    1e9e:	87 e7       	ldi	r24, 0x77	; 119
    1ea0:	c0 de       	rcall	.-640    	; 0x1c22 <sendchar>
			sendchar(0);
    1ea2:	80 e0       	ldi	r24, 0x00	; 0
    1ea4:	22 c0       	rjmp	.+68     	; 0x1eea <main+0x29a>

		// clear and set LED ignored
		} else if ((val == 'x') || (val == 'y')) {
    1ea6:	98 e8       	ldi	r25, 0x88	; 136
    1ea8:	98 0f       	add	r25, r24
    1eaa:	92 30       	cpi	r25, 0x02	; 2
    1eac:	10 f4       	brcc	.+4      	; 0x1eb2 <main+0x262>
			recvchar();
    1eae:	bd de       	rcall	.-646    	; 0x1c2a <recvchar>
    1eb0:	04 c0       	rjmp	.+8      	; 0x1eba <main+0x26a>
			sendchar('\r');

		// set device
		} else if (val == 'T') {
    1eb2:	84 35       	cpi	r24, 0x54	; 84
    1eb4:	21 f4       	brne	.+8      	; 0x1ebe <main+0x26e>
			device = recvchar();
    1eb6:	b9 de       	rcall	.-654    	; 0x1c2a <recvchar>
    1eb8:	f8 2e       	mov	r15, r24
			sendchar('\r');
    1eba:	8d e0       	ldi	r24, 0x0D	; 13
    1ebc:	16 c0       	rjmp	.+44     	; 0x1eea <main+0x29a>

		// Return software identifier
		} else if (val == 'S') {
    1ebe:	83 35       	cpi	r24, 0x53	; 83
    1ec0:	11 f4       	brne	.+4      	; 0x1ec6 <main+0x276>
			send_boot();
    1ec2:	b7 de       	rcall	.-658    	; 0x1c32 <send_boot>
    1ec4:	ff ce       	rjmp	.-514    	; 0x1cc4 <main+0x74>

		// Return Software Version
		} else if (val == 'V') {
    1ec6:	86 35       	cpi	r24, 0x56	; 86
    1ec8:	21 f4       	brne	.+8      	; 0x1ed2 <main+0x282>
			sendchar(VERSION_HIGH);
    1eca:	80 e3       	ldi	r24, 0x30	; 48
    1ecc:	aa de       	rcall	.-684    	; 0x1c22 <sendchar>
			sendchar(VERSION_LOW);
    1ece:	88 e3       	ldi	r24, 0x38	; 56
    1ed0:	0c c0       	rjmp	.+24     	; 0x1eea <main+0x29a>

		// Return Signature Bytes (it seems that 
		// AVRProg expects the "Atmel-byte" 0x1E last
		// but shows it first in the dialog-window)
		} else if (val == 's') {
    1ed2:	83 37       	cpi	r24, 0x73	; 115
    1ed4:	31 f4       	brne	.+12     	; 0x1ee2 <main+0x292>
			sendchar(SIG_BYTE3);
    1ed6:	87 e0       	ldi	r24, 0x07	; 7
    1ed8:	a4 de       	rcall	.-696    	; 0x1c22 <sendchar>
			sendchar(SIG_BYTE2);
    1eda:	83 e9       	ldi	r24, 0x93	; 147
    1edc:	a2 de       	rcall	.-700    	; 0x1c22 <sendchar>
			sendchar(SIG_BYTE1);
    1ede:	8e e1       	ldi	r24, 0x1E	; 30
    1ee0:	04 c0       	rjmp	.+8      	; 0x1eea <main+0x29a>

		/* ESC */
		} else if(val != 0x1b) {
    1ee2:	8b 31       	cpi	r24, 0x1B	; 27
    1ee4:	09 f4       	brne	.+2      	; 0x1ee8 <main+0x298>
    1ee6:	ee ce       	rjmp	.-548    	; 0x1cc4 <main+0x74>
			sendchar('?');
    1ee8:	8f e3       	ldi	r24, 0x3F	; 63
    1eea:	9b de       	rcall	.-714    	; 0x1c22 <sendchar>
    1eec:	eb ce       	rjmp	.-554    	; 0x1cc4 <main+0x74>

00001eee <eeprom_read_byte>:
    1eee:	e1 99       	sbic	0x1c, 1	; 28
    1ef0:	fe cf       	rjmp	.-4      	; 0x1eee <eeprom_read_byte>
    1ef2:	9f bb       	out	0x1f, r25	; 31
    1ef4:	8e bb       	out	0x1e, r24	; 30
    1ef6:	e0 9a       	sbi	0x1c, 0	; 28
    1ef8:	99 27       	eor	r25, r25
    1efa:	8d b3       	in	r24, 0x1d	; 29
    1efc:	08 95       	ret

00001efe <eeprom_write_byte>:
    1efe:	26 2f       	mov	r18, r22

00001f00 <eeprom_write_r18>:
    1f00:	e1 99       	sbic	0x1c, 1	; 28
    1f02:	fe cf       	rjmp	.-4      	; 0x1f00 <eeprom_write_r18>
    1f04:	9f bb       	out	0x1f, r25	; 31
    1f06:	8e bb       	out	0x1e, r24	; 30
    1f08:	2d bb       	out	0x1d, r18	; 29
    1f0a:	0f b6       	in	r0, 0x3f	; 63
    1f0c:	f8 94       	cli
    1f0e:	e2 9a       	sbi	0x1c, 2	; 28
    1f10:	e1 9a       	sbi	0x1c, 1	; 28
    1f12:	0f be       	out	0x3f, r0	; 63
    1f14:	01 96       	adiw	r24, 0x01	; 1
    1f16:	08 95       	ret

00001f18 <_exit>:
    1f18:	f8 94       	cli

00001f1a <__stop_program>:
    1f1a:	ff cf       	rjmp	.-2      	; 0x1f1a <__stop_program>
